{
	"data": {
		"bytecode": {
			"linkReferences": {},
			"object": "608060405260646000556101f460015561001d61004360201b60201c565b60025561002e61005d60201b60201c565b60035534801561003d57600080fd5b5061006f565b60008061005461006660201b60201c565b90508091505090565b60008054905090565b60008054905090565b6101c68061007e6000396000f3fe608060405234801561001057600080fd5b50600436106100625760003560e01c80634169ee2d146100675780635ae37edb146100855780635e6858dd146100a3578063a558a2f4146100c1578063b8c7a4f9146100df578063ddd11494146100fd575b600080fd5b61006f61011b565b60405161007c919061016b565b60405180910390f35b61008d61012f565b60405161009a919061016b565b60405180910390f35b6100ab610135565b6040516100b8919061016b565b60405180910390f35b6100c961013e565b6040516100d6919061016b565b60405180910390f35b6100e7610144565b6040516100f4919061016b565b60405180910390f35b61010561014a565b604051610112919061016b565b60405180910390f35b600080610126610153565b90508091505090565b60025481565b60008054905090565b60005481565b60035481565b60008054905090565b60008054905090565b61016581610186565b82525050565b6000602082019050610180600083018461015c565b92915050565b600081905091905056fea264697066735822122000fd693846c0834af98b1adcd8372417759853e310ee187a36f75a147d6a5e7a64736f6c63430008070033",
			"opcodes": "PUSH1 0x80 PUSH1 0x40 MSTORE PUSH1 0x64 PUSH1 0x0 SSTORE PUSH2 0x1F4 PUSH1 0x1 SSTORE PUSH2 0x1D PUSH2 0x43 PUSH1 0x20 SHL PUSH1 0x20 SHR JUMP JUMPDEST PUSH1 0x2 SSTORE PUSH2 0x2E PUSH2 0x5D PUSH1 0x20 SHL PUSH1 0x20 SHR JUMP JUMPDEST PUSH1 0x3 SSTORE CALLVALUE DUP1 ISZERO PUSH2 0x3D JUMPI PUSH1 0x0 DUP1 REVERT JUMPDEST POP PUSH2 0x6F JUMP JUMPDEST PUSH1 0x0 DUP1 PUSH2 0x54 PUSH2 0x66 PUSH1 0x20 SHL PUSH1 0x20 SHR JUMP JUMPDEST SWAP1 POP DUP1 SWAP2 POP POP SWAP1 JUMP JUMPDEST PUSH1 0x0 DUP1 SLOAD SWAP1 POP SWAP1 JUMP JUMPDEST PUSH1 0x0 DUP1 SLOAD SWAP1 POP SWAP1 JUMP JUMPDEST PUSH2 0x1C6 DUP1 PUSH2 0x7E PUSH1 0x0 CODECOPY PUSH1 0x0 RETURN INVALID PUSH1 0x80 PUSH1 0x40 MSTORE CALLVALUE DUP1 ISZERO PUSH2 0x10 JUMPI PUSH1 0x0 DUP1 REVERT JUMPDEST POP PUSH1 0x4 CALLDATASIZE LT PUSH2 0x62 JUMPI PUSH1 0x0 CALLDATALOAD PUSH1 0xE0 SHR DUP1 PUSH4 0x4169EE2D EQ PUSH2 0x67 JUMPI DUP1 PUSH4 0x5AE37EDB EQ PUSH2 0x85 JUMPI DUP1 PUSH4 0x5E6858DD EQ PUSH2 0xA3 JUMPI DUP1 PUSH4 0xA558A2F4 EQ PUSH2 0xC1 JUMPI DUP1 PUSH4 0xB8C7A4F9 EQ PUSH2 0xDF JUMPI DUP1 PUSH4 0xDDD11494 EQ PUSH2 0xFD JUMPI JUMPDEST PUSH1 0x0 DUP1 REVERT JUMPDEST PUSH2 0x6F PUSH2 0x11B JUMP JUMPDEST PUSH1 0x40 MLOAD PUSH2 0x7C SWAP2 SWAP1 PUSH2 0x16B JUMP JUMPDEST PUSH1 0x40 MLOAD DUP1 SWAP2 SUB SWAP1 RETURN JUMPDEST PUSH2 0x8D PUSH2 0x12F JUMP JUMPDEST PUSH1 0x40 MLOAD PUSH2 0x9A SWAP2 SWAP1 PUSH2 0x16B JUMP JUMPDEST PUSH1 0x40 MLOAD DUP1 SWAP2 SUB SWAP1 RETURN JUMPDEST PUSH2 0xAB PUSH2 0x135 JUMP JUMPDEST PUSH1 0x40 MLOAD PUSH2 0xB8 SWAP2 SWAP1 PUSH2 0x16B JUMP JUMPDEST PUSH1 0x40 MLOAD DUP1 SWAP2 SUB SWAP1 RETURN JUMPDEST PUSH2 0xC9 PUSH2 0x13E JUMP JUMPDEST PUSH1 0x40 MLOAD PUSH2 0xD6 SWAP2 SWAP1 PUSH2 0x16B JUMP JUMPDEST PUSH1 0x40 MLOAD DUP1 SWAP2 SUB SWAP1 RETURN JUMPDEST PUSH2 0xE7 PUSH2 0x144 JUMP JUMPDEST PUSH1 0x40 MLOAD PUSH2 0xF4 SWAP2 SWAP1 PUSH2 0x16B JUMP JUMPDEST PUSH1 0x40 MLOAD DUP1 SWAP2 SUB SWAP1 RETURN JUMPDEST PUSH2 0x105 PUSH2 0x14A JUMP JUMPDEST PUSH1 0x40 MLOAD PUSH2 0x112 SWAP2 SWAP1 PUSH2 0x16B JUMP JUMPDEST PUSH1 0x40 MLOAD DUP1 SWAP2 SUB SWAP1 RETURN JUMPDEST PUSH1 0x0 DUP1 PUSH2 0x126 PUSH2 0x153 JUMP JUMPDEST SWAP1 POP DUP1 SWAP2 POP POP SWAP1 JUMP JUMPDEST PUSH1 0x2 SLOAD DUP2 JUMP JUMPDEST PUSH1 0x0 DUP1 SLOAD SWAP1 POP SWAP1 JUMP JUMPDEST PUSH1 0x0 SLOAD DUP2 JUMP JUMPDEST PUSH1 0x3 SLOAD DUP2 JUMP JUMPDEST PUSH1 0x0 DUP1 SLOAD SWAP1 POP SWAP1 JUMP JUMPDEST PUSH1 0x0 DUP1 SLOAD SWAP1 POP SWAP1 JUMP JUMPDEST PUSH2 0x165 DUP2 PUSH2 0x186 JUMP JUMPDEST DUP3 MSTORE POP POP JUMP JUMPDEST PUSH1 0x0 PUSH1 0x20 DUP3 ADD SWAP1 POP PUSH2 0x180 PUSH1 0x0 DUP4 ADD DUP5 PUSH2 0x15C JUMP JUMPDEST SWAP3 SWAP2 POP POP JUMP JUMPDEST PUSH1 0x0 DUP2 SWAP1 POP SWAP2 SWAP1 POP JUMP INVALID LOG2 PUSH5 0x6970667358 0x22 SLT KECCAK256 STOP REVERT PUSH10 0x3846C0834AF98B1ADCD8 CALLDATACOPY 0x24 OR PUSH22 0x9853E310EE187A36F75A147D6A5E7A64736F6C634300 ADDMOD SMOD STOP CALLER "
		},
		"gasEstimates": {
			"creation": {
				"codeDepositCost": "90800",
				"executionCost": "infinite",
				"totalCost": "infinite"
			},
			"external": {
				"externalFn()": "2525",
				"numA()": "2473",
				"publicCallPrivateFn()": "2463",
				"publicFn()": "2459",
				"testNumA()": "2429",
				"testNumB()": "2495"
			}
		},
		"methodIdentifiers": {
			"externalFn()": "ddd11494",
			"numA()": "a558a2f4",
			"publicCallPrivateFn()": "4169ee2d",
			"publicFn()": "5e6858dd",
			"testNumA()": "5ae37edb",
			"testNumB()": "b8c7a4f9"
		}
	},
	"abi": [
		{
			"inputs": [],
			"name": "externalFn",
			"outputs": [
				{
					"internalType": "int256",
					"name": "",
					"type": "int256"
				}
			],
			"stateMutability": "view",
			"type": "function"
		},
		{
			"inputs": [],
			"name": "numA",
			"outputs": [
				{
					"internalType": "int256",
					"name": "",
					"type": "int256"
				}
			],
			"stateMutability": "view",
			"type": "function"
		},
		{
			"inputs": [],
			"name": "publicCallPrivateFn",
			"outputs": [
				{
					"internalType": "int256",
					"name": "",
					"type": "int256"
				}
			],
			"stateMutability": "view",
			"type": "function"
		},
		{
			"inputs": [],
			"name": "publicFn",
			"outputs": [
				{
					"internalType": "int256",
					"name": "",
					"type": "int256"
				}
			],
			"stateMutability": "view",
			"type": "function"
		},
		{
			"inputs": [],
			"name": "testNumA",
			"outputs": [
				{
					"internalType": "int256",
					"name": "",
					"type": "int256"
				}
			],
			"stateMutability": "view",
			"type": "function"
		},
		{
			"inputs": [],
			"name": "testNumB",
			"outputs": [
				{
					"internalType": "int256",
					"name": "",
					"type": "int256"
				}
			],
			"stateMutability": "view",
			"type": "function"
		}
	]
}